:100000000C945E000C9486000C9486000C94860080
:100010000C9486000C9486000C9486000C94860048
:100020000C9486000C9486000C9486000C94CF04EB
:100030000C9486000C9486000C9486000C94860028
:100040000C942D040C9486000C949D040C9477045D
:100050000C9486000C9486000C9486000C94860008
:100060000C9486000C9486000000000024002700F9
:100070002A0000000000250028002B0004040404CE
:100080000404040402020202020203030303030342
:10009000010204081020408001020408102001021F
:1000A00004081020000000080002010000030407FB
:1000B00000000000000000009005020711241FBE90
:1000C000CFEFD8E0DEBFCDBF11E0A0E0B1E0E0E3CC
:1000D000F4E102C005900D92A638B107D9F722E0ED
:1000E000A6E8B1E001C01D92AF36B207E1F710E01B
:1000F000CDE5D0E004C02197FE010E94F007CC3589
:10010000D107C9F70E94EA050C940B0A0C94000071
:10011000CF92DF92EF92FF920F931F93CF93DF93D3
:100120006C017A018B01C0E0D0E0CE15DF0589F0CB
:10013000D8016D918D01D601ED91FC910190F08176
:10014000E02DC6010995892B11F47E0102C021968C
:10015000ECCFC701DF91CF911F910F91FF90EF90EE
:10016000DF90CF900895089580E090E00895FC011D
:10017000538D448D252F30E0842F90E0821B930B0C
:10018000541710F0CF96089501970895FC01918DB2
:10019000828D981761F0828DDF01A80FB11D5D96E9
:1001A0008C91928D9F5F9F73928F90E008958FEF57
:1001B0009FEF0895FC01918D828D981731F0828D0B
:1001C000E80FF11D858D90E008958FEF9FEF089562
:1001D000FC01918D228D892F90E0805C9F4F821BC6
:1001E00091098F739927089586EB91E00E94E800AA
:1001F00021E0892B09F420E0822F0895FC01848DF1
:10020000DF01A80FB11DA35ABF4F2C91848D90E040
:1002100001968F739927848FA689B7892C93A0891B
:10022000B1898C9180648C93938D848D981306C0D2
:100230000288F389E02D80818F7D80830895EF927D
:10024000FF920F931F93CF93DF93EC0181E0888F90
:100250009B8D8C8D981305C0E889F989808185FD77
:1002600024C0F62E0B8D10E00F5F1F4F0F73112768
:10027000E02E8C8DE8120CC00FB607FCFACFE8898F
:10028000F989808185FFF5CFCE010E94FE00F1CF74
:100290008B8DFE01E80FF11DE35AFF4FF0820B8FAB
:1002A000EA89FB898081806207C0EE89FF896083CB
:1002B000E889F98980818064808381E090E0DF9122
:1002C000CF911F910F91FF90EF900895CF93DF93FF
:1002D000EC01888D8823C9F0EA89FB89808185FD3E
:1002E00005C0A889B9898C9186FD0FC00FB607FC9F
:1002F000F5CF808185FFF2CFA889B9898C9185FFE0
:10030000EDCFCE010E94FE00E7CFDF91CF9108959F
:1003100090E0FC01EC55FF4F3491FC01E057FF4F9A
:100320002491FC01E458FF4FE491EE2309F43BC013
:10033000332339F1333091F038F43130A9F03230D1
:1003400001F584B58F7D12C0373091F03830A1F0BF
:100350003430B9F4809180008F7D03C0809180009B
:100360008F77809380000DC084B58F7784BD09C0DE
:100370008091B0008F7703C08091B0008F7D809313
:10038000B000F0E0EE0FFF1FEE58FF4FA591B491C3
:100390008FB7F894EC91611103C020952E2301C012
:1003A0002E2B2C938FBF0895CF92DF92EF92FF9266
:1003B000CF93DF93EC01603282E078070CF03DC010
:1003C00077FD06C0653B71052CF064EB70E002C060
:1003D00060E070E0898128E830E06901C81AD1083E
:1003E00087FDD394CC0CDD1CCC0CDD1C0D2C000C3B
:1003F000EE08FF088A8128E532E0281B310987FDD5
:100400003395220F331F220F331FC901330FAA0B5D
:10041000BB0B9C01AD012C193D094E095F09DB01A5
:100420000E94740724EB30E040E050E00E944A074D
:10043000C20ED31EE41EF51EB60188818C3080F5F5
:10044000998148E850E0491B510997FD5395440FA5
:10045000551F440F551F6417750784F09A8128E5CE
:1004600032E0291B310997FD3395220F331F220FEC
:10047000331FAB01261737070CF4A901425051096D
:10048000440F551F2FB7F89490E0FC01EE0FFF1FAB
:100490008E0F9F1FFC01E857FE4F528341832FBFF1
:1004A000DF91CF91FF90EF90DF90CF900895CF93A1
:1004B000DF93DC018C918C3008F06DC09B013327F9
:1004C000F901E057FF4F8491F901E458FF4F24915F
:1004D000222399F030E0220F331FF901E859FF4F32
:1004E000C591D491F901EE58FF4F259134919FB7F2
:1004F000F894E881E82BE8839FBF8C91E82FF0E027
:100500009F01220F331FE20FF31FE857FE4F6F7357
:100510009081907C692B608311961C9211971296A2
:100520001C9212976CE00E94E4079CE0899FB00146
:10053000112440E050E09A01260F371FF901EE0F19
:10054000FF1F2E0F3F1FF901E857FE4F908196FDC8
:1005500016C04F5F5F4F4C30510569F781110FC0D6
:100560001092800082E080938100109285001092AA
:100570008400B19A80916F00826080936F00EC914B
:10058000F0E0CF01880F991FE80FF91FE857FE4FE1
:100590008081806480838C91DF91CF910895FC01EC
:1005A000909187019C30A0F481E0890F80938701AE
:1005B0009083892F90E0FC01EE0FFF1F8E0F9F1F8D
:1005C000FC01E857FE4F88EB9BE0928381830895FE
:1005D0008FEF80830895CF93DF93E5E6F2E04481C7
:1005E00055816081718186EB91E00E948800EC0169
:1005F00042E050E068E171E086EB91E00E94880003
:100600008C0F9D1FDF91CF910895009769F0FC0139
:1006100001900020E9F73197AF01481B590BBC014D
:1006200086EB91E00C94880080E090E00895FC0156
:100630008091630290916402892B21F421E030972C
:1006400049F413C080915F0290916002309731F4B9
:1006500021E0FC018081882341F006C0BF010E9497
:10066000FB0921E0892B09F020E0822F0895809179
:10067000650290916602009711F00C940E0760E0FD
:1006800070E0CB0108950E94ED090F931F93CF9363
:10069000DF93EC0188819981009729F02A813B81C1
:1006A0002617370788F48B016F5F7F4F0E9423095D
:1006B000009761F0998388831B830A832C813D8195
:1006C000232B11F4FC01108281E001C080E0DF9156
:1006D000CF911F910F910895EF92FF920F931F9367
:1006E000CF93DF93EC017B018A01BA010E9445039D
:1006F0002881398181110DC02115310519F0C901F9
:100700000E948B08198218821D821C821B821A8209
:1007100006C01D830C83B701C9010E94040ACE01E3
:10072000DF91CF911F910F91FF90EF900895CF939C
:10073000DF93EC016115710559F0FB010190002078
:10074000E9F73197AF01461B570B0E946C030CC0B1
:1007500088819981009711F00E948B081982188274
:100760001D821C821B821A82CE01DF91CF910895D7
:10077000FF920F931F93CF93DF9300D0CDB7DEB7D7
:10078000FF24F39486EB91E00E94E800892B09F4A2
:1007900056C086EB91E00E94C6008A3019F4F092B0
:1007A000AC01F0CF282F082E000C330B91E02B3139
:1007B000390719F46BE171E006C091E02D3139077A
:1007C00039F46DE171E08FE592E00E949703DACF92
:1007D00091E02F31390719F46FE171E0F4CF91E026
:1007E0002132390719F461E271E0EDCF205331096C
:1007F0002A30310538F689831A82009169021091F6
:100800006A020F5F1F4FB80185E692E00E94450320
:10081000882309F4B7CF2091650230916602809158
:10082000690290916A02BE016F5F7F4F820F931F32
:100830000E94040A10936A0200936902A3CF0F90EA
:100840000F90DF91CF911F910F91FF9008950E941B
:10085000F40081110C94B80308951F920F920FB603
:100860000F9211242F933F938F939F93AF93BF9336
:100870008091B2019091B301A091B401B091B50102
:100880003091B10123E0230F2D3720F40196A11DF3
:10089000B11D05C026E8230F0296A11DB11D2093AE
:1008A000B1018093B2019093B301A093B401B093CE
:1008B000B5018091AD019091AE01A091AF01B091D1
:1008C000B0010196A11DB11D8093AD019093AE01C1
:1008D000A093AF01B093B001BF91AF919F918F9161
:1008E0003F912F910F900FBE0F901F9018951F9260
:1008F0000F920FB60F9211242F933F934F935F9354
:100900006F937F938F939F93AF93BF93EF93FF93D7
:1009100086EB91E00E94FE00FF91EF91BF91AF91B5
:100920009F918F917F916F915F914F913F912F9107
:100930000F900FBE0F901F9018951F920F920FB639
:100940000F9211242F938F939F93EF93FF93E09136
:10095000C601F091C7018081E091CC01F091CD01F9
:1009600082FD12C090818091CF018F5F8F732091A3
:10097000D001821751F0E091CF01F0E0EA54FE4F30
:10098000958F8093CF0101C08081FF91EF919F915E
:100990008F912F910F900FBE0F901F9018951F925F
:1009A0000F920FB60F9211242F933F934F935F93A3
:1009B0006F937F938F939F93AF93BF93EF93FF9327
:1009C0008091860187FF05C01092850010928400F7
:1009D0001BC020918601022E000C330B80918701F1
:1009E00090E02817390784F480918601082E000CC6
:1009F000990BFC01EE0FFF1F8E0F9F1FFC01E857A4
:100A0000FE4F808186FD15C0809186018F5F8093A7
:100A1000860120918601022E000C330B8091870104
:100A200090E028173907C4F4809186018C3064F176
:100A300013C080918601082E000C990BFC01EE0F6B
:100A4000FF1F8E0F9F1FFC01E857FE4F808160E063
:100A50008F730E948801D8CF809184009091850087
:100A6000049680349C4918F480E49CE905C0809188
:100A7000840090918500049690938900809388006B
:100A80008FEF809386013BC02091840030918500D8
:100A900080918601082E000C990BFC01EE0FFF1FC0
:100AA0008E0F9F1FFC01E857FE4F81819281820FBC
:100AB000931F909389008093880080918601082E6F
:100AC000000C990BFC01EE0FFF1F8E0F9F1FFC0106
:100AD000E857FE4F808186FF12C080918601082E64
:100AE000000C990BFC01EE0FFF1F8E0F9F1FFC01E6
:100AF000E857FE4F808161E08F730E948801FF916B
:100B0000EF91BF91AF919F918F917F916F915F9185
:100B10004F913F912F910F900FBE0F901F901895FE
:100B2000E6EBF1E01382128288EE93E0A0E0B0E001
:100B300084839583A683B7838AE091E09183808341
:100B400085EC90E09587848784EC90E09787868792
:100B500080EC90E0918B808B81EC90E0938B828B8A
:100B600082EC90E0958B848B86EC90E0978B868B63
:100B7000118E128E138E148EE5E6F2E01182108231
:100B8000138212821582148240E050E06AE171E023
:100B9000CF010E946C03EFE5F2E011821082138214
:100BA00012821582148240E050E06AE171E0CF01C8
:100BB0000E946C038CE592E00E94CF0289E592E0EE
:100BC0000E94CF0286E592E00E94CF0283E592E088
:100BD0000C94CF02789484B5826084BD84B5816022
:100BE00084BD85B5826085BD85B5816085BD8091F8
:100BF0006E00816080936E00109281008091810070
:100C00008260809381008091810081608093810067
:100C1000809180008160809380008091B100846029
:100C20008093B1008091B00081608093B00080918A
:100C30007A00846080937A0080917A008260809349
:100C40007A0080917A00816080937A0080917A00A6
:100C5000806880937A001092C100E091C601F09103
:100C6000C70182E08083E091C201F091C30110824C
:100C7000E091C401F091C5018FEC80831092CE0108
:100C8000E091CA01F091CB0186E08083E091C80138
:100C9000F091C901808180618083E091C801F09169
:100CA000C901808188608083E091C801F091C90109
:100CB000808180688083E091C801F091C9018081C2
:100CC0008F7D808362E070E08CE592E00E945702A5
:100CD00063E070E089E592E00E94570264E070E012
:100CE00086E592E00E94570265E070E083E592E0BD
:100CF0000E9457026AE570E08CE592E00E94D40100
:100D00006AE570E089E592E00E94D40160E070E05D
:100D100086E592E00E94D40160E070E083E592E015
:100D20000E94D4018091AC01882309F468C083E259
:100D300091E00E940503409163025091640260912A
:100D40005F027091600286EB91E00E9488000E9431
:100D5000EB028BE191E00E941703882361F00E946F
:100D600037038CE592E00E94D40186E391E00E9473
:100D700005030E94EB028DE191E00E941703882396
:100D800061F00E94370389E592E00E94D40189E472
:100D900091E00E9405030E94EB028FE191E00E9426
:100DA0001703882361F00E94370386E592E00E94D2
:100DB000D4018CE591E00E9405030E94EB0281E2E0
:100DC00091E00E941703882361F00E94370383E5B6
:100DD00092E00E94D4018FE691E00E9405030E94F8
:100DE000EB021092AC016AE171E085E692E00E94AC
:100DF00097036AE171E08FE592E00E9497030E94F9
:100E0000270490CF80915F02909160020E948B082E
:100E100080916502909166020C948B081F93FC01EF
:100E200099278827BC01E89411911032E9F3193011
:100E300010F01E30C8F31B3251F01D3249F4689493
:100E400006C00E943507610F711D811D911D119112
:100E500010531A30B0F33EF49095809570956195DB
:100E60007F4F8F4F9F4F1F910895592F482F372F36
:100E7000262F660F771F881F991F660F771F881F01
:100E8000991F620F731F841F951F660F771F881F9E
:100E9000991F0895052E97FB1EF400940E94610788
:100EA00057FD07D00E94B30707FC03D04EF40C9403
:100EB000610750954095309521953F4F4F4F5F4FBB
:100EC000089590958095709561957F4F8F4F9F4FB6
:100ED00008950E94D507A59F900DB49F900DA49FE3
:100EE000800D911D11240895B7FF0C9469070E948D
:100EF0006907821B930B08952F923F924F925F9246
:100F00006F927F928F929F92AF92BF92CF92DF9219
:100F1000EF92FF920F931F93CF93DF93CDB7DEB77E
:100F2000CA1BDB0B0FB6F894DEBF0FBECDBF099412
:100F30002A88398848885F846E847D848C849B8469
:100F4000AA84B984C884DF80EE80FD800C811B8177
:100F5000AA81B981CE0FD11D0FB6F894DEBF0FBEA6
:100F6000CDBFED010895A1E21A2EAA1BBB1BFD0106
:100F70000DC0AA1FBB1FEE1FFF1FA217B307E40778
:100F8000F50720F0A21BB30BE40BF50B661F771FD0
:100F9000881F991F1A9469F76095709580959095B0
:100FA0009B01AC01BD01CF010895A29FB001B39F89
:100FB000C001A39F700D811D1124911DB29F700D62
:100FC000811D1124911D0895991B79E004C0991F7A
:100FD000961708F0961B881F7A95C9F78095089593
:100FE000EE0FFF1F0590F491E02D0994CF93DF934E
:100FF0008230910510F482E090E0E0916D02F09172
:101000006E0220E030E0C0E0D0E0309711F1408186
:10101000518148175907C0F04817590761F4828178
:101020009381209719F09B838A832BC090936E0243
:1010300080936D0226C02115310519F04217530720
:1010400018F49A01BE01DF01EF010280F381E02D67
:10105000DCCF2115310509F1281B390B243031056E
:1010600090F412968D919C9113976115710521F062
:10107000FB019383828304C090936E0280936D0280
:10108000FD01329644C0FD01E20FF31F819391935D
:10109000225031092D933C933AC020916B0230913C
:1010A0006C02232B41F42091020130910301309313
:1010B0006C0220936B0220910001309101012115F7
:1010C000310541F42DB73EB740910401509105011F
:1010D000241B350BE0916B02F0916C02E217F307D1
:1010E000A0F42E1B3F0B2817390778F0AC014E5F98
:1010F0005F4F2417350748F04E0F5F1F50936C0267
:1011000040936B028193919302C0E0E0F0E0CF0145
:10111000DF91CF9108950F931F93CF93DF930097A3
:1011200009F48CC0FC0132971382128200916D0287
:1011300010916E020115110581F420813181820F19
:10114000931F20916B0230916C022817390779F5B3
:10115000F0936C02E0936B0271C0D80140E050E064
:10116000AE17BF0750F412962D913C911397AD0125
:101170002115310509F1D901F3CF9D01DA0133833E
:10118000228360817181860F971F8217930769F40C
:10119000EC0128813981260F371F2E5F3F4F3183A5
:1011A00020838A819B8193838283452B29F4F0934A
:1011B0006E02E0936D0242C01396FC93EE93129779
:1011C000ED01499159919E01240F351FE217F30754
:1011D00071F480819181840F951F029611969C93E2
:1011E0008E938281938113969C938E931297E0E065
:1011F000F0E0D80112968D919C911397009719F009
:10120000F8018C01F6CF8D919C9198012E5F3F4F94
:10121000820F931F20916B0230916C0228173907BF
:1012200069F4309729F410926E0210926D0202C098
:101230001382128210936C0200936B02DF91CF91A4
:101240001F910F910895A0E0B0E0E9E2F9E00C945D
:101250008007EC01009721F4CB010E94F607B8C08B
:10126000FC01E60FF71F9C0122503109E217F3073A
:1012700008F4ACC0D9010D911C91119706171707FE
:10128000B0F00530110508F49FC0C8010497861717
:10129000970708F499C002501109061B170B019318
:1012A00011936D937C93CF010E948B088DC05B01DD
:1012B000A01AB10A4C01800E911EA0916D02B0914E
:1012C0006E0240E050E0E12CF12C109709F44AC086
:1012D000A815B905D1F56D907C901197630182E056
:1012E000C80ED11CCA14DB0480F1A3014A195B09A2
:1012F0006A0182E0C80ED11C1296BC901297139618
:10130000AC91B5E0CB16D10440F0B282A3835183F7
:101310004083D9016D937C930AC00E5F1F4FC301B8
:10132000800F911FF90191838083EB2DFA2FE11437
:10133000F10431F0D7011396FC93EE93129744C059
:10134000F0936E02E0936D023FC08D919C911197D6
:101350004817590708F4AC017D0112960D90BC9115
:10136000A02DB3CF80916B0290916C0288159905E6
:10137000E1F446175707C8F48091000190910101EC
:10138000009741F48DB79EB740910401509105013B
:10139000841B950BE817F907C8F4F0936C02E093EF
:1013A0006B02F901718360830FC0CB010E94F607C5
:1013B0007C01009759F0A801BE010E94F209CE01FC
:1013C0000E948B08C70104C0CE0102C080E090E0FB
:1013D000CDB7DEB7EEE00C949C0781E090E0F89486
:1013E0000C940B0AFB01DC0102C001900D924150EC
:1013F0005040D8F70895FB01DC018D9101908019D0
:101400000110D9F3990B0895FB01DC0101900D92B5
:101410000020E1F7089510E0CDE5D0E004C0FE0122
:101420000E94F0072196CE35D107C9F7F894FFCF77
:1014300000006F028000000000001F018800B7005C
:101440006601E800C600DA000D0A00580059004D98
:10145000004600436F6D6D616E642052656365697F
:101460007665643A200053657474696E672058206D
:101470004178697320746F200053657474696E67D6
:101480002059204178697320746F2000536574746B
:10149000696E67204D6F746F727320746F200053F4
:1014A000657474696E6720466972696E672041725F
:0614B0006D20746F2000A6
:00000001FF
