:100000000C945E000C9486000C9486000C94860080
:100010000C9486000C9486000C9486000C94860048
:100020000C9486000C9486000C9486000C94A30417
:100030000C9486000C9486000C9486000C94860028
:100040000C9401040C9486000C9471040C944B04E1
:100050000C9486000C9486000C9486000C94860008
:100060000C9486000C9486000000000024002700F9
:100070002A0000000000250028002B0004040404CE
:100080000404040402020202020203030303030342
:10009000010204081020408001020408102001021F
:1000A00004081020000000080002010000030407FB
:1000B00000000000000000006405AB0611241FBE14
:1000C000CFEFD8E0DEBFCDBF11E0A0E0B1E0E2E8C5
:1000D000F3E102C005900D92A032B107D9F722E0FA
:1000E000A0E2B1E001C01D92A930B207E1F710E033
:1000F000CDE5D0E004C02197FE010E949907CC35E0
:10010000D107C9F70E94BE050C94B4090C940000F5
:10011000CF92DF92EF92FF920F931F93CF93DF93D3
:100120006C017A018B01C0E0D0E0CE15DF0589F0CB
:10013000D8016D918D01D601ED91FC910190F08176
:10014000E02DC6010995892B11F47E0102C021968C
:10015000ECCFC701DF91CF911F910F91FF90EF90EE
:10016000DF90CF900895089580E090E00895FC011D
:10017000538D448D252F30E0842F90E0821B930B0C
:10018000541710F0CF96089501970895FC01918DB2
:10019000828D981761F0828DDF01A80FB11D5D96E9
:1001A0008C91928D9F5F9F73928F90E008958FEF57
:1001B0009FEF0895FC01918D828D981731F0828D0B
:1001C000E80FF11D858D90E008958FEF9FEF089562
:1001D000FC01918D228D892F90E0805C9F4F821BC6
:1001E00091098F739927089580E591E00E94E800B6
:1001F00021E0892B09F420E0822F0895FC01848DF1
:10020000DF01A80FB11DA35ABF4F2C91848D90E040
:1002100001968F739927848FA689B7892C93A0891B
:10022000B1898C9180648C93938D848D981306C0D2
:100230000288F389E02D80818F7D80830895EF927D
:10024000FF920F931F93CF93DF93EC0181E0888F90
:100250009B8D8C8D981305C0E889F989808185FD77
:1002600024C0F62E0B8D10E00F5F1F4F0F73112768
:10027000E02E8C8DE8120CC00FB607FCFACFE8898F
:10028000F989808185FFF5CFCE010E94FE00F1CF74
:100290008B8DFE01E80FF11DE35AFF4FF0820B8FAB
:1002A000EA89FB898081806207C0EE89FF896083CB
:1002B000E889F98980818064808381E090E0DF9122
:1002C000CF911F910F91FF90EF900895CF93DF93FF
:1002D000EC01888D8823C9F0EA89FB89808185FD3E
:1002E00005C0A889B9898C9186FD0FC00FB607FC9F
:1002F000F5CF808185FFF2CFA889B9898C9185FFE0
:10030000EDCFCE010E94FE00E7CFDF91CF9108959F
:1003100090E0FC01EC55FF4F3491FC01E057FF4F9A
:100320002491FC01E458FF4FE491EE2309F43BC013
:10033000332339F1333091F038F43130A9F03230D1
:1003400001F584B58F7D12C0373091F03830A1F0BF
:100350003430B9F4809180008F7D03C0809180009B
:100360008F77809380000DC084B58F7784BD09C0DE
:100370008091B0008F7703C08091B0008F7D809313
:10038000B000F0E0EE0FFF1FEE58FF4FA591B491C3
:100390008FB7F894EC91611103C020952E2301C012
:1003A0002E2B2C938FBF0895CF92DF92EF92FF9266
:1003B000CF93DF93EC01603282E078070CF03DC010
:1003C00077FD06C0653B71052CF064EB70E002C060
:1003D00060E070E0898128E830E06901C81AD1083E
:1003E00087FDD394CC0CDD1CCC0CDD1C0D2C000C3B
:1003F000EE08FF088A8128E532E0281B310987FDD5
:100400003395220F331F220F331FC901330FAA0B5D
:10041000BB0B9C01AD012C193D094E095F09DB01A5
:100420000E941D0724EB30E040E050E00E94F306FC
:10043000C20ED31EE41EF51EB60188818C3080F5F5
:10044000998148E850E0491B510997FD5395440FA5
:10045000551F440F551F6417750784F09A8128E5CE
:1004600032E0291B310997FD3395220F331F220FEC
:10047000331FAB01261737070CF4A901425051096D
:10048000440F551F2FB7F89490E0FC01EE0FFF1FAB
:100490008E0F9F1FFC01EE5DFE4F528341832FBFE5
:1004A000DF91CF91FF90EF90DF90CF900895CF93A1
:1004B000DF93DC018C918C3008F06DC09B013327F9
:1004C000F901E057FF4F8491F901E458FF4F24915F
:1004D000222399F030E0220F331FF901E859FF4F32
:1004E000C591D491F901EE58FF4F259134919FB7F2
:1004F000F894E881E82BE8839FBF8C91E82FF0E027
:100500009F01220F331FE20FF31FEE5DFE4F6F734B
:100510009081907C692B608311961C9211971296A2
:100520001C9212976CE00E948D079CE0899FB0019D
:10053000112440E050E09A01260F371FF901EE0F19
:10054000FF1F2E0F3F1FF901EE5DFE4F908196FDBC
:1005500016C04F5F5F4F4C30510569F781110FC0D6
:100560001092800082E080938100109285001092AA
:100570008400B19A80916F00826080936F00EC914B
:10058000F0E0CF01880F991FE80FF91FEE5DFE4FD5
:100590008081806480838C91DF91CF910895FC01EC
:1005A000909121019C30A0F481E0890F809321017A
:1005B0009083892F90E0FC01EE0FFF1F8E0F9F1F8D
:1005C000FC01EE5DFE4F88EB9BE0928381830895F2
:1005D0008FEF80830895FC018091FD019091FE01D1
:1005E000892B21F421E0309749F413C08091F9015F
:1005F0009091FA01309731F421E0FC018081882349
:1006000041F006C0BF010E94A40921E0892B09F036
:1006100020E0822F08958091FF01909100020097C1
:1006200011F00C94B70660E070E0CB0108950E94D1
:1006300096090F931F93CF93DF93EC0188819981E3
:10064000009729F02A813B812617370788F48B0110
:100650006F5F7F4F0E94CC08009761F09983888379
:100660001B830A832C813D81232B11F4FC01108212
:1006700081E001C080E0DF91CF911F910F9108953B
:10068000EF92FF920F931F93CF93DF93EC017B01C7
:100690008A01BA010E9419032881398181110DC094
:1006A0002115310519F0C9010E94340819821882F8
:1006B0001D821C821B821A8206C01D830C83B70117
:1006C000C9010E94AD09CE01DF91CF911F910F9119
:1006D000FF90EF900895CF93DF93EC0161157105C2
:1006E00059F0FB0101900020E9F73197AF01461B5B
:1006F000570B0E9440030CC088819981009711F02C
:100700000E943408198218821D821C821B821A8260
:10071000CE01DF91CF910895FF920F931F93CF9356
:10072000DF9300D0CDB7DEB7FF24F39480E591E0EE
:100730000E94E800892B09F456C080E591E00E94F0
:10074000C6008A3019F4F0924601F0CF282F082E07
:10075000000C330B91E02831390719F468E171E09E
:1007600006C091E02A31390739F46AE171E089EF76
:1007700091E00E946B03DACF91E02C31390719F434
:100780006CE171E0F4CF91E02E31390719F46EE19C
:1007900071E0EDCF205331092A30310538F68983D5
:1007A0001A8200910302109104020F5F1F4FB801DB
:1007B0008FEF91E00E941903882309F4B7CF2091AD
:1007C000FF01309100028091030290910402BE016A
:1007D0006F5F7F4F820F931F0E94AD091093040239
:1007E00000930302A3CF0F900F90DF91CF911F9141
:1007F0000F91FF9008950E94F40081110C948C03D6
:1008000008951F920F920FB60F9211242F933F93CA
:100810008F939F93AF93BF9380914C0190914D0123
:10082000A0914E01B0914F0130914B0123E0230F75
:100830002D3720F40196A11DB11D05C026E8230F18
:100840000296A11DB11D20934B0180934C01909302
:100850004D01A0934E01B0934F01809147019091BB
:100860004801A0914901B0914A010196A11DB11D15
:100870008093470190934801A0934901B0934A01A6
:10088000BF91AF919F918F913F912F910F900FBE8C
:100890000F901F9018951F920F920FB60F92112470
:1008A0002F933F934F935F936F937F938F939F9378
:1008B000AF93BF93EF93FF9380E591E00E94FE001A
:1008C000FF91EF91BF91AF919F918F917F916F9128
:1008D0005F914F913F912F910F900FBE0F901F90FE
:1008E00018951F920F920FB60F9211242F938F938A
:1008F0009F93EF93FF93E0916001F09161018081FC
:10090000E0916601F091670182FD12C090818091B3
:1009100069018F5F8F7320916A01821751F0E09116
:100920006901F0E0E05BFE4F958F8093690101C0A3
:100930008081FF91EF919F918F912F910F900FBE2A
:100940000F901F9018951F920F920FB60F921124BF
:100950002F933F934F935F936F937F938F939F93C7
:10096000AF93BF93EF93FF938091200187FF05C062
:1009700010928500109284001BC020912001022E4D
:10098000000C330B8091210190E02817390784F483
:1009900080912001082E000C990BFC01EE0FFF1F27
:1009A0008E0F9F1FFC01EE5DFE4F808186FD15C0FE
:1009B000809120018F5F8093200120912001022EE1
:1009C000000C330B8091210190E028173907C4F403
:1009D000809120018C3064F113C080912001082E99
:1009E000000C990BFC01EE0FFF1F8E0F9F1FFC01E7
:1009F000EE5DFE4F808160E08F730E948801D8CF4A
:100A00008091840090918500049680349C4918F46C
:100A100080E49CE905C08091840090918500049653
:100A200090938900809388008FEF809320013BC0D2
:100A3000209184003091850080912001082E000CC7
:100A4000990BFC01EE0FFF1F8E0F9F1FFC01EE5D47
:100A5000FE4F81819281820F931F90938900809332
:100A6000880080912001082E000C990BFC01EE0FEC
:100A7000FF1F8E0F9F1FFC01EE5DFE4F808186FFE2
:100A800012C080912001082E000C990BFC01EE0F82
:100A9000FF1F8E0F9F1FFC01EE5DFE4F808161E006
:100AA0008F730E948801FF91EF91BF91AF919F9149
:100AB0008F917F916F915F914F913F912F910F9007
:100AC0000FBE0F901F901895E0E5F1E0138212829F
:100AD00088EE93E0A0E0B0E084839583A683B7839B
:100AE0008AE091E09183808385EC90E0958784870C
:100AF00084EC90E09787868780EC90E0918B808BE8
:100B000081EC90E0938B828B82EC90E0958B848BD0
:100B100086EC90E0978B868B118E128E138E148E3E
:100B2000EFEFF1E01182108213821282158214829B
:100B300040E050E06FE171E0CF010E944003E9EF37
:100B4000F1E011821082138212821582148240E039
:100B500050E06FE171E0CF010E94400386EF91E029
:100B60000E94CF0283EF91E00E94CF0280EF91E0DC
:100B70000E94CF028DEE91E00C94CF02789484B560
:100B8000826084BD84B5816084BD85B5826085BD89
:100B900085B5816085BD80916E00816080936E0017
:100BA0001092810080918100826080938100809109
:100BB00081008160809381008091800081608093BA
:100BC00080008091B10084608093B1008091B0007A
:100BD00081608093B00080917A00846080937A0075
:100BE00080917A00826080937A0080917A0081609F
:100BF00080937A0080917A00806880937A001092C6
:100C0000C100E0916001F091610182E08083E09198
:100C10005C01F0915D011082E0915E01F0915F0155
:100C20008FEC808310926801E0916401F09165017E
:100C300086E08083E0916201F091630180818061B0
:100C40008083E0916201F0916301808188608083FC
:100C5000E0916201F0916301808180688083E0917E
:100C60006201F091630180818F7D808362E070E09A
:100C700086EF91E00E94570263E070E083EF91E01D
:100C80000E94570264E070E080EF91E00E945702FA
:100C900065E070E08DEE91E00E9457026AE570E039
:100CA00086EF91E00E94D4016AE570E083EF91E065
:100CB0000E94D40160E070E080EF91E00E94D401D6
:100CC00060E070E08DEE91E00E94D40180914601D9
:100CD0008823F1F188E191E00E94EB02882331F052
:100CE0000E940B0386EF91E00E94D4018AE191E01B
:100CF0000E94EB02882331F00E940B0383EF91E006
:100D00000E94D4018CE191E00E94EB02882331F033
:100D10000E940B0380EF91E00E94D4018EE191E0EC
:100D20000E94EB02882331F00E940B038DEE91E0CC
:100D30000E94D401109246016FE171E08FEF91E0C3
:100D40000E946B036FE171E089EF91E00E946B03F9
:100D50000E94FB03BBCF8091F9019091FA010E94A0
:100D600034088091FF01909100020C9434081F9385
:100D7000FC0199278827BC01E89411911032E9F30E
:100D8000193010F01E30C8F31B3251F01D3249F4F7
:100D9000689406C00E94DE06610F711D811D911DC1
:100DA000119110531A30B0F33EF4909580957095E0
:100DB00061957F4F8F4F9F4F1F910895592F482F57
:100DC000372F262F660F771F881F991F660F771FF3
:100DD000881F991F620F731F841F951F660F771F4F
:100DE000881F991F0895052E97FB1EF400940E94FA
:100DF0000A0757FD07D00E945C0707FC03D04EF49A
:100E00000C940A0750954095309521953F4F4F4FD0
:100E10005F4F089590958095709561957F4F8F4FA6
:100E20009F4F08950E947E07A59F900DB49F900D3F
:100E3000A49F800D911D11240895B7FF0C941207F3
:100E40000E941207821B930B08952F923F924F929C
:100E50005F926F927F928F929F92AF92BF92CF924A
:100E6000DF92EF92FF920F931F93CF93DF93CDB753
:100E7000DEB7CA1BDB0B0FB6F894DEBF0FBECDBFCB
:100E800009942A88398848885F846E847D848C849C
:100E90009B84AA84B984C884DF80EE80FD800C81A5
:100EA0001B81AA81B981CE0FD11D0FB6F894DEBF88
:100EB0000FBECDBFED010895A1E21A2EAA1BBB1BE8
:100EC000FD010DC0AA1FBB1FEE1FFF1FA217B30716
:100ED000E407F50720F0A21BB30BE40BF50B661F2C
:100EE000771F881F991F1A9469F7609570958095F0
:100EF00090959B01AC01BD01CF010895A29FB00167
:100F0000B39FC001A39F700D811D1124911DB29F3D
:100F1000700D811D1124911D0895991B79E004C065
:100F2000991F961708F0961B881F7A95C9F7809528
:100F30000895EE0FFF1F0590F491E02D0994CF93D3
:100F4000DF938230910510F482E090E0E091070297
:100F5000F091080220E030E0C0E0D0E0309711F1DD
:100F60004081518148175907C0F04817590761F46B
:100F700082819381209719F09B838A832BC0909361
:100F800008028093070226C02115310519F0421787
:100F9000530718F49A01BE01DF01EF010280F381CB
:100FA000E02DDCCF2115310509F1281B390B243048
:100FB000310590F412968D919C91139761157105EE
:100FC00021F0FB019383828304C0909308028093F5
:100FD0000702FD01329644C0FD01E20FF31F819329
:100FE0009193225031092D933C933AC020910502F0
:100FF00030910602232B41F420910201309103012C
:1010000030930602209305022091000130910101E6
:101010002115310541F42DB73EB74091040150919F
:101020000501241B350BE0910502F0910602E21741
:10103000F307A0F42E1B3F0B2817390778F0AC01FB
:101040004E5F5F4F2417350748F04E0F5F1F5093D8
:101050000602409305028193919302C0E0E0F0E024
:10106000CF01DF91CF9108950F931F93CF93DF931B
:10107000009709F48CC0FC01329713821282009110
:101080000702109108020115110581F420813181B8
:10109000820F931F2091050230910602281739070D
:1010A00079F5F0930602E093050271C0D80140E0A3
:1010B00050E0AE17BF0750F412962D913C91139754
:1010C000AD012115310509F1D901F3CF9D01DA01F7
:1010D0003383228360817181860F971F8217930764
:1010E00069F4EC0128813981260F371F2E5F3F4FAD
:1010F000318320838A819B8193838283452B29F4CA
:10110000F0930802E093070242C01396FC93EE931B
:101110001297ED01499159919E01240F351FE21755
:10112000F30771F480819181840F951F02961196C7
:101130009C938E938281938113969C938E931297A6
:10114000E0E0F0E0D80112968D919C911397009702
:1011500019F0F8018C01F6CF8D919C9198012E5FCA
:101160003F4F820F931F20910502309106022817EE
:10117000390769F4309729F4109208021092070297
:1011800002C0138212821093060200930502DF91BF
:10119000CF911F910F910895A0E0B0E0E2EDF8E04B
:1011A0000C942907EC01009721F4CB010E949F07C2
:1011B000B8C0FC01E60FF71F9C0122503109E2176D
:1011C000F30708F4ACC0D9010D911C9111970617D3
:1011D0001707B0F00530110508F49FC0C801049747
:1011E0008617970708F499C002501109061B170BC0
:1011F000019311936D937C93CF010E9434088DC0AD
:101200005B01A01AB10A4C01800E911EA091070249
:10121000B091080240E050E0E12CF12C109709F465
:101220004AC0A815B905D1F56D907C90119763015E
:1012300082E0C80ED11CCA14DB0480F1A3014A1954
:101240005B096A0182E0C80ED11C1296BC9012970D
:101250001396AC91B5E0CB16D10440F0B282A383D3
:1012600051834083D9016D937C930AC00E5F1F4F59
:10127000C301800F911FF90191838083EB2DFA2F19
:10128000E114F10431F0D7011396FC93EE93129719
:1012900044C0F0930802E09307023FC08D919C91F7
:1012A00011974817590708F4AC017D0112960D906B
:1012B000BC91A02DB3CF80910502909106028815B4
:1012C0009905E1F446175707C8F480910001909101
:1012D0000101009741F48DB79EB7409104015091F0
:1012E0000501841B950BE817F907C8F4F093060273
:1012F000E0930502F901718360830FC0CB010E9466
:101300009F077C01009759F0A801BE010E949B092C
:10131000CE010E943408C70104C0CE0102C080E0A3
:1013200090E0CDB7DEB7EEE00C94450781E090E0A9
:10133000F8940C94B409FB01DC0102C001900D92F9
:1013400041505040D8F70895FB01DC018D91019088
:1013500080190110D9F3990B0895FB01DC0101906C
:101360000D920020E1F7089510E0CDE5D0E004C033
:10137000FE010E9499072196CE35D107C9F7F8944E
:02138000FFCF9D
:10138200000009028000000000001F018800B70071
:101392006601E800C600DA00580059004D00460018
:00000001FF
